:020000040800F2
:100000001812002001010008655000086750000820
:100010006B5000086F50000873500008000000008B
:100020000000000000000000000000007750000801
:100030007950000800000000772E00087B5000086F
:100040001B0100081B0100081B0100081B01000820
:100050001B0100081B0100081B0100081B01000810
:100060001B0100081B0100081B0100081B01000800
:100070001B0100081B0100081B0100081B010008F0
:100080001B0100081B0100081B0100081B010008E0
:100090001B0100081B0100081B010008FF5000089D
:1000A0001B0100081B0100081B0100081B010008C0
:1000B0001B0100081B010008DD5000081B0100089F
:1000C0001B0100081B0100081B0100081B010008A0
:1000D0001B0100089D5000081B0100081B010008BF
:1000E0001B0100081B0100081B010008DFF80CD0F1
:1000F00005F054F900480047F54E0008181200209A
:100100000648804706480047FEE7FEE7FEE7FEE7B1
:10011000FEE7FEE7FEE7FEE7FEE7FEE7ED0100088B
:10012000ED00000800210020674A126842F4803286
:10013000654B1A6000BF644A126802F40030491C23
:1001400010B9B1F5A06FF6D15F4A126812F4003F02
:1001500001D0012000E00020012842D15B4A126852
:1001600042F01002594B1A601A46126822F003023C
:100170001A601A46126842F002021A60524A526825
:10018000514B5A601A4652685A601A46526842F4F5
:1001900080625A601A46526822F47C125A601A46EB
:1001A000526842F4E8125A601A46126842F08072AD
:1001B0001A6000BF444A126812F0007FFAD0424A27
:1001C000526822F00302404B5A601A46526842F0CD
:1001D00002025A6000BF3C4A526802F00C02082A30
:1001E000F9D1704710B5FFF79DFF10BD10B5364827
:1001F000006840F00100344908600846406834490E
:1002000008403149486008460068324908402E4994
:1002100008600846006820F48020086008464068AE
:1002200020F4FE0048604FF41F008860FFF7DAFFFB
:100230004FF000602849086010BD10B50021002073
:100240000022214B5B6803F00C0121B1042906D088
:10025000082928D107E0214B214C236027E01F4BC0
:100260001F4C236023E0184B5B6803F47010164B9F
:100270005B6803F48032022303EB904022B9194BF0
:100280004343174C23600DE00F4B5B6813F4003FB2
:1002900004D0144B4343124C236003E00F4B434301
:1002A0000F4C236003E00D4B0D4C236000BF00BFDB
:1002B000054B5B68C3F303130B4CE15C084B1B68F5
:1002C000CB40074C236010BD0010024000200240CC
:1002D0000000FFF8FFFFF6FE08ED00E000127A00D4
:1002E0000000002000093D000400002036490143C1
:1002F000364A1160704770B5002100230F22C47880
:100300004CB3324C246804F4E064C4F5E0644FEA72
:100310001421C1F1040322FA01F2447804FA03F132
:10032000847804EA020444EA01014FEA0111284CEE
:100330000678A155047804F01F054FF0010404FA73
:1003400005F405784FEA65154FF0E02606EB8505C4
:10035000C5F8004109E0047804F01F050124AC4011
:100360001C4D0678761145F8264070BD1A4A0A40A1
:1003700002431A4B1A60704741B1194A126842EAA7
:1003800000024FF0E023C3F8102D07E0144A126872
:1003900022EA00024FF0E023C3F8102D7047042832
:1003A00008D14FF0E021096941F004014FF0E0224B
:1003B000116107E04FF0E021096921F004014FF0DD
:1003C000E0221161704700000000FA050CED00E02A
:1003D00000E400E080E100E080FFFF1F08ED00E0A6
:1003E00010ED00E00020474908604749C1F80404C7
:1003F0004649086001F10401086045484549086024
:10040000704700213F498279DAB33F4AD2F800248D
:1004100003689A433C4BC3F800241A46D2F80424DC
:1004200003689A4301F104031A60027911440A68CF
:10043000036842EA03020A60334AD2F808240368D8
:1004400022EA0302304BC3F808241A46D2F80C24DF
:10045000036822EA0302304B1A604279102A11D154
:10046000294AD2F8082403681A43274BC3F8082402
:100470001A46D2F80C2403681A43234BC3F80C2401
:100480000EE007E01F49427911440A6803681A43E5
:100490000A6005E0027911440A6803689A430A6019
:1004A00070470021016001710C21417100218171AF
:1004B00070471A49096841EA0001134AC2F810144A
:1004C000704701460020134A12680A4201D00120F9
:1004D00000E0002070470F49086070470146002087
:1004E0000022084B1B6803EA0102074BD3F81434BF
:1004F0000B4202D00AB1012000E0002070470549FC
:1005000008607047000401400000014008040140F9
:10051000FFFF0F00140401400C04014010040140CF
:1005200001460020FF4A106800F0380008431060C0
:100530007047FC49096821F00801FA4A1160114628
:100540000968014311607047F649096821F01001FC
:10055000F44A116011460968014311607047F2487E
:10056000F0494860F14848607047EF48ED494860FD
:10057000EE4848607047EB48006940F08000E94968
:1005800008617047E748006940F08000E54908616C
:1005900070470420E349C96801F00101012901D134
:1005A00001200EE0DF49C96811F0040F01D00220DC
:1005B00007E0DC49C96811F0100F01D0032000E00A
:1005C0000420704700B502460423FFF7E2FF03460C
:1005D00003E0FFF7DEFF0346521E012B01D1002A84
:1005E000F7D102B90523184600BD30B504460425ED
:1005F0004FF43020FFF7E6FF0546042D17D1C94818
:10060000006940F00200C74908610846446100697A
:1006100040F0400008614FF43020FFF7D3FF05465B
:10062000C048006941F6FD710840BE49086128468E
:1006300030BD10B504244FF43020FFF7C3FF04464B
:10064000042C16D1B748006940F00400B549086190
:100650000846006940F0400008614FF43020FFF781
:10066000B1FF0446AF48006941F6FB710840AD494F
:100670000861204610BD00B502460423FFF789FF3C
:10068000034603E0FFF785FF0346521E012B01D10D
:10069000002AF7D102B90523184600BD10B504247D
:1006A0004FF43020FFF7E7FF0446042C16D19D4895
:1006B000006940F004009B4908610846006940F069
:1006C000400008614FF43020FFF7D5FF04469548FD
:1006D000006941F6FB71084092490861204610BD4F
:1006E00000209049C96911F0020F01D0012000E0FB
:1006F0000020704730B5A5250424FFF7F1FF00B1B5
:1007000000254FF43020FFF75DFF0446042C3BD159
:10071000854884498860854888600846006940F0BB
:10072000200008610846006940F0400008614FF46D
:100730003020FFF747FF0446042C1CD1794800699C
:1007400041F6DF710840774908610846006940F0CA
:1007500010000861764805804FF40050FFF732FF23
:100760000446052C10D06F48006941F6EF7108402F
:100770006C49086108E0052C06D06A48006941F61A
:10078000EF71084067490861204630BDF0B5044666
:100790000D4604260027F002FFF714FF0646042E3C
:1007A00022D16048006940F001005E49086125805F
:1007B000F002FFF707FF0646042E0ED1A71C280CF7
:1007C0003880F002FFF7FEFE06465648006941F603
:1007D000FE7108405349086106E05248006941F63D
:1007E000FE7108404F4908613046F0BD70B50446BF
:1007F0000D460426F002FFF7E5FE0646042E11D151
:100800004848006940F00100464908612580F0022F
:10081000FFF7D8FE06464348006941F6FE710840DE
:1008200040490861304670BD70B505460E46042447
:10083000E002FFF7C7FE0446042C17D13A483949B5
:1008400088603A4888600846006940F010000861F6
:100850002E80E002FFF7B6FE0446052C06D0314894
:10086000006941F6EF7108402E490861204670BDCD
:100870002DE9F04304464FF6FF763746B046B146C1
:100880000425E443E6B2C4F30727C4F307484FEA5C
:100890001469E802FFF796FE0546042D3ED1224872
:1008A00020498860214888600846006940F01000AF
:1008B0000861FF2E06D01F4806804FF40050FFF756
:1008C00081FE0546042D08D1FF2F06D01A48078067
:1008D0004FF40050FFF776FE0546042D09D1B8F11C
:1008E000FF0F06D01548A0F80C88E802FFF76AFE53
:1008F0000546042D09D1B9F1FF0F06D00F48A0F825
:100900000E98E802FFF75EFE0546052D06D0054865
:10091000006941F6EF710840024908612846BDE8C8
:10092000F08300000020024023016745AB89EFCD32
:1009300000F8FF1F08F8FF1F0AF8FF1F00F0FF1F55
:1009400030B5054604244FF43020FFF73BFE044643
:10095000042C41D15F48604988606048886008463F
:10096000006940F0200008610846006940F040003E
:1009700008614FF43020FFF725FE0446042C22D1F5
:100980005548006941F6DF7108405349086108463F
:10099000006940F0100008611DB100205049088036
:1009A00002E0A5204E4908804FF43020FFF70AFEF0
:1009B0000446052C10D04848006941F6EF71084004
:1009C0004549086108E0052C06D04348006941F616
:1009D000DF71084040490861204630BDF0B505464A
:1009E0000E46174604243B483B4988603B488860D4
:1009F000E002FFF7E7FD0446042C19D136480069F0
:100A000040F010003449086147F0F80030432843B3
:100A1000344908804FF40050FFF7D4FD0446052CFC
:100A200006D02D48006941F6EF7108402A49086157
:100A30002046F0BD2848C069800870472648006AF3
:100A4000704700202449096811F0200F01D00120CF
:100A500000E00020704729B11F4A126902431E4B73
:100A60001A6104E01C4A126982431B4B1A617047E9
:100A700001460020012908D1174AD26912F0010F5E
:100A800001D0012008E0002006E0134AD2680A42A3
:100A900001D0012000E0002070470F49C860704776
:100AA00004200D49C96801F00101012901D101208B
:100AB0000EE00949C96811F0040F01D0022007E0D7
:100AC0000549C96811F0100F01D0032000E004208F
:100AD000704700002301674500200240AB89EFCD3D
:100AE00000F8FF1F02F8FF1F10B50446CA488442F1
:100AF00008D10121042000F01CFD0021042000F099
:100B000018FD46E0C548844208D10121082000F0C4
:100B100010FD0021082000F00CFD3AE0C04884429E
:100B200008D10121102000F004FD0021102000F068
:100B300000FD2EE0BB48844208D10121202000F0B6
:100B4000F8FC0021202000F0F4FC22E0B6488442AA
:100B500008D10121402000F0ECFC0021402000F0F1
:100B6000E8FC16E0B148844208D10121802000F061
:100B7000E0FC0021802000F0DCFC0AE0AC4884426C
:100B800007D10121801500F0D4FC0021A01500F050
:100B9000D0FC10BD10B50121084600F0CAFC0021B0
:100BA000012000F0C6FC10BD2DE9F04102460025F1
:100BB0000026002000230024002791F803C00CF039
:100BC0000F0591F803C01CF0100F03D091F802C07C
:100BD0004CEA0505B1F800C01CF0FF0F31D01468D5
:100BE00000202BE04FF0010C0CFA00F3B1F800C02C
:100BF0000CEA03069E4220D183004FF00F0C0CFA42
:100C000003F7BC4305FA03FC4CEA040491F803C063
:100C1000BCF1280F06D14FF0010C0CFA00FCC2F811
:100C200014C00AE091F803C0BCF1480F05D14FF0A1
:100C3000010C0CFA00FCC2F810C0401C0828D1D3EB
:100C40001460B1F800C0BCF1FF0F34DD546800201F
:100C50002EE000F1080C4FF0010808FA0CF3B1F88F
:100C600000C00CEA03069E4221D183004FF00F0C16
:100C70000CFA03F7BC4305FA03FC4CEA040491F8B0
:100C800003C0BCF1280F05D100F1080C08FA0CF8DC
:100C9000C2F8148091F803C0BCF1480F07D100F1ED
:100CA000080C4FF0010808FA0CF8C2F81080401C3C
:100CB0000828CED35460BDE8F0814FF6FF71018063
:100CC000022181700421C1707047024600209368A0
:100CD0000B4201D0012000E00020704701468868E7
:100CE00080B2704702460020D3680B4201D0012039
:100CF00000E0002070470146C86880B2704701617B
:100D00007047416170470AB1016100E0416170477D
:100D1000C16070474FF480320A4382618161826111
:100D200082698269704702460020424B18684FF67C
:100D30008073184040EA021008433E4B1860704729
:100D40003D49C8617047F0B50A46002300240021E0
:100D5000002500F00046B6F1004F02D1354EF16992
:100D600001E0344E7168C0F3034583B200F44016CD
:100D7000B6F5401F08D121F070612E4E766826F03E
:100D800070662C4F7E6012E000F48016B6F5801F6E
:100D900006D1032606FA05F4A14341F0706106E08E
:100DA000460D360103FA06F6B14341F0706122B1F7
:100DB000460D360103FA06F6314300F00046B6F15F
:100DC000004F02D11B4EF16101E01A4E7160F0BD7F
:100DD00030B500228B071C0F0F2303FA04F2154BCA
:100DE00008338C1053F824309343124C08348D1080
:100DF00044F8253023468C1053F824308C07240FF8
:100E000000FA04F423430B4C08348D1044F82530C9
:100E100030BD0A490860704700080140000C0140DD
:100E2000001001400014014000180140001C014066
:100E3000002001400000014000002042DC00204270
:100E400010B50446F648844209D10121480500F056
:100E50007DFB00214FF4001000F078FB08E0012139
:100E6000880500F073FB00214FF4800000F06EFB5A
:100E700010BD2DE9F04385B004460D460026B1466D
:100E80000427DFF8A083A6884FF6C0710E4068469D
:100E900000F0C8FADDF80880E348B8FBF0F01FFA6C
:100EA00080F946EA0906A68020884FF6FE710840C0
:100EB00020800026DD49286888420CD82868400038
:100EC000B8FBF0F087B2042F00DA04273E4309F1A3
:100ED0000100208427E0E888A0F53F41FF3906D1D2
:100EE000286800EB4000B8FBF0F087B209E0286802
:100EF00000EBC00101EB0010B8FBF0F087B247F443
:100F000080473805000D01D147F0010747F4004044
:100F100006434FF4967009FB00F04FF47A7190FB92
:100F2000F1F0401C2084A683208840F0010020803E
:100F300026884FF6F5310E40A88869890843064394
:100F40002680A88929890843208105B0BDE8F0835F
:100F500041F288310160002181804BF6FF71C18030
:100F60000021018141814FF480418181704721B18D
:100F7000028842F00102028004E002884FF6FE730C
:100F80001A400280704721B1828842F40062828058
:100F900004E082884FF2FF731A408280704721B1CB
:100FA000828842F48052828004E082884EF6FF7389
:100FB0001A408280704721B1028842F48072028018
:100FC00004E002884FF6FF631A400280704721B1A7
:100FD000028842F40072028004E002884FF6FF5358
:100FE0001A400280704721B1028842F48062028078
:100FF00004E002884FF6FF331A40028070470A4629
:10100000002181894FF60173194002F0FE03194354
:101010008181704721B1828942F00102828104E01E
:1010200082894FF6FE731A408281704721B102888F
:1010300042F04002028004E002884FF6BF731A407B
:101040000280704710B51AB183880B43838004E097
:101050008388CC43A4B22340838010BD01827047B3
:101060000146088AC0B2704712B141F0010102E0A6
:101070004FF6FE7319400182704702460023134663
:101080000B441888704721B1028842F40042028064
:1010900003E00288C2F30E0202807047B1F5006FD0
:1010A00004D1028842F40062028004E002884FF218
:1010B000FF731A4002807047B1F5005F04D10288C7
:1010C00042F40052028004E002884DF6FF731A4099
:1010D0000280704721B1028842F48052028004E00D
:1010E00002884EF6FF731A4002807047B1F5006F18
:1010F00004D1028842F40062028004E002884FF2C8
:10110000FF731A400280704721B1028842F020022A
:10111000028004E002884FF6DF731A4002807047B5
:101120000146088B0012704721B1028842F010027C
:10113000028004E002884FF6EF731A400280704785
:1011400021B9028842F08002028004E002884FF652
:101150007F731A4002807047B1F5804F05D0828BB3
:101160004BF6FF731A40828303E0828B42F4804285
:101170008283704770B502460024002500230020BA
:10118000958A138B1B0445EA030626F07F4404EA84
:1011900001068E4201D1012000E0002070BD10B593
:1011A00001460020002300228B8A0A8B120443EAA6
:1011B000020424F07F4010BD30B503460020002417
:1011C00000221A460C0F21F07F410CB1143201E0CD
:1011D000090C183215680D4201D0012000E00020F2
:1011E00030BD002221F07F42D3438382704730B567
:1011F000024600200023948801F0E06504EA1543CC
:1012000021F07F41948A0C4202D00BB1012000E012
:10121000002030BD002221F07F42D34383827047FB
:101220000054004000127A0040420F00A0860100E6
:10123000DB48006840F00100D94908600846406872
:10124000D8490840D649486008460068D649084051
:10125000D34908600846006820F4802008600846EA
:10126000406820F4FE0048604FF41F00886070471B
:10127000CB49096821F48031C94A116011460968D7
:1012800021F480211160B0F5803F03D0B0F5802FAC
:101290000ED106E0C249096841F48031C04A1160AC
:1012A00007E0BF49096841F4A021BD4A116000E090
:1012B00000BF00BF704710B5014600220023002088
:1012C0004A11012A02D1B64C236806E0022A02D153
:1012D000B34C236A01E0B24C636A01F01F0201249F
:1012E00094401C4201D0012000E0002010BD70B5E8
:1012F00000240025002600BF3120FFF7DCFF064652
:10130000641CB4F5A06F01D0002EF5D03120FFF79A
:10131000D2FF08B1012500E00025284670BD014636
:1013200000209F4A106820F0F80040EAC1001060D9
:1013300070479E490860704702460020984B5868E5
:1013400020F47C1042EA01031843954B5860704723
:1013500096490866704701460020914A506820F07F
:1013600003000843506070478D48406800F00C004F
:101370007047014600208A4A506820F0F000084378
:101380005060704701460020854A506820F4E060B4
:1013900008435060704701460020814A506820F49D
:1013A000605040EAC1005060704729B17C4A527ACF
:1013B00002437B4B5A7206E0794A527AC343DBB24E
:1013C0001A40774B5A727047794908607047014656
:1013D0000020734A506820F4404008435060704732
:1013E0000021744A11706E4A82F82010012802D040
:1013F000042808D103E001216E4A117004E00521A0
:101400006C4A117000E000BF00BF70476A49086075
:1014100070476349096A0143614A1162704767492D
:101420000860704730B500210022002400235C4D85
:101430006D6805F00C0121B1042905D0082923D1DC
:1014400005E05F4D056022E05D4D05601FE0544DF5
:101450006D6805F47012524D6D6805F480340225F4
:1014600005EB92421CB9574D554305600BE04C4DBE
:101470006D6815F4003F03D0524D5543056002E0FE
:101480004F4D5543056002E04D4D056000BF00BF64
:10149000434D6D6805F0F00109094B4D6B5C056823
:1014A000DD4045603E4D6D6805F4E061090A464D3A
:1014B0006B5C4568DD408560394D6D6805F46051B1
:1014C000C90A414D6B5C4568DD40C560344D6D68AF
:1014D00005F44041890B3D4D6B5CC568B5FBF3F5E8
:1014E000056130BD29B12E4A526902432C4B5A6125
:1014F00004E02B4A52698243294B5A61704729B153
:10150000274A92690243264B9A6104E0244A926971
:101510008243234B9A61704729B1214AD269024321
:101520001F4BDA6104E01E4AD26982431C4BDA6128
:10153000704729B11A4AD2680243194BDA6004E0B5
:10154000174AD2688243164BDA60704729B1144AB1
:1015500012690243124B1A6104E0114A1269824374
:101560000F4B1A6170471A49086070470F49C864E9
:1015700070470B49C87170470948406A40F0807055
:1015800007494862704701460020054A92680A42AE
:1015900001D0012000E000207047014988727047A7
:1015A000001002400000FFF8FFFFF6FE000042427C
:1015B000D800424220100240800442423C04424291
:1015C00000127A0000093D001400002024000020D1
:1015D0004004424210B50446FF48844208D101212C
:1015E000C014FFF7A6FF0021E014FFF7A2FFC4E03C
:1015F000B4F1804F08D101210846FFF7A7FF002171
:101600000120FFF7A3FFB8E0F448844208D101218C
:101610000220FFF79BFF00210220FFF797FFACE0BD
:10162000EF48844208D101210420FFF78FFF0021F9
:101630000420FFF78BFFA0E0EA48844208D1012193
:101640000820FFF783FF00210820FFF77FFF94E0C9
:10165000E548844208D101211020FFF777FF0021DF
:101660001020FFF773FF88E0E048844208D1012191
:101670002020FFF76BFF00212020FFF767FF7CE0B1
:10168000DB48844208D101214014FFF752FF0021BA
:101690006014FFF74EFF70E0D648844209D1012163
:1016A000C804FFF746FF00214FF40020FFF741FF79
:1016B00063E0D148844209D101210805FFF739FFD1
:1016C00000214FF48010FFF734FF56E0CB488442EE
:1016D00009D101214805FFF72CFF00214FF400102C
:1016E000FFF727FF49E0C648844208D10121402086
:1016F000FFF72CFF00214020FFF728FF3DE0C14805
:10170000844208D101218020FFF720FF00218020A2
:10171000FFF71CFF31E0BC48844208D1012180154D
:10172000FFF714FF0021A015FFF710FF25E0B748D1
:10173000844209D101210804FFF7FBFE00214FF488
:101740008030FFF7F6FE18E0B148844209D101214C
:101750004804FFF7EEFE00214FF40030FFF7E9FEEA
:101760000BE0AC48844208D101218804FFF7E1FE78
:1017700000214FF48020FFF7DCFE10BD002202881C
:10178000954B98420ED09A4B98420BD0B0F1804FB7
:1017900008D0924B984205D0914B984202D0914B81
:1017A000984204D14FF68F731A404B881A438E4BE0
:1017B000984207D08D4B984204D04FF6FF431A4011
:1017C000CB881A4302808B8883850B880385824BE4
:1017D00098420BD0864B984208D08C4B984205D04B
:1017E0008B4B984202D08B4B984201D10B7A0386E7
:1017F00001238382704770B5002400220023058CEA
:101800004FF6FE7635400584028C8388048B4FF6B4
:101810008F752C40B51E2C400D882C43751E2A4018
:101820000D892A434D882A436B4DA8420BD0704D39
:10183000A84208D0754DA84205D0754DA84202D0E7
:10184000744DA84213D14FF6F7752A404D892A43AB
:101850004FF6FB752A408D882A434FF6FF652B40D3
:101860004FF6FF552B408D892B43CD892B43838029
:101870000483CD888586028470BD70B50024002263
:101880000023058C4FF6EF7635400584028C838863
:10189000048B48F6FF752C404FF6FF452C400D8811
:1018A0002D0644EA15444FF6DF752A400D892D05B3
:1018B00042EA15424D882D0542EA1542464DA8429E
:1018C00002D04B4DA8421BD14FF67F752A404D895F
:1018D0002D0542EA15424FF6BF752A408D882D0529
:1018E00042EA15424FF6FF352B404FF2FF752B4071
:1018F0008D89AD0443EA1543CD89AD0443EA154310
:1019000083800483CD880587028470BD70B5002470
:1019100000220023058C4FF6FF6635400584028CBB
:101920008388848B4FF68F752C404FF6FC752C40C6
:101930000D882C434FF6FF552A400D892D0642EAAB
:1019400015424D882D0642EA1542234DA84202D089
:10195000274DA8421BD14FF2FF752A404D892D0615
:1019600042EA15424FF6FF352A408D882D0642EA9D
:1019700015424EF6FF752B404DF6FF752B408D89B5
:101980002D0543EA1543CD892D0543EA1543838090
:101990008483CD888587028470BD70B500220023C2
:1019A0000024058C4EF6FF7635400584038C848830
:1019B000828B48F6FF752A404FF6FF452A400D8876
:1019C0002D0642EA15424DF6FF752B400D892D0775
:1019D00043EA15434D881FE0002C014000040040FD
:1019E00000080040000C00400010004000140040BF
:1019F00000340140004C01400050014000540140BF
:101A000000180040001C0040002000400040014041
:101A100000440140004801402D0743EA1543F94DB9
:101A2000A84202D0F84DA84206D14BF6FF752C40D3
:101A30008D89AD0544EA154484808283CD88A0F861
:101A40004050038470BD828B4FF2FF331A40828373
:101A5000828B0B0642EA134282837047F0B50C4634
:101A60001546002200210026078C4EF6FF7C07EA6F
:101A70000C070784828B018C27073E0C40F6FF473A
:101A80003A402F0642EA17421F0742EA1742DD4F4B
:101A9000B8420ED0DC4FB8420BD0B0F1804F08D026
:101AA000DA4FB84205D0DA4FB84202D0D94FB84227
:101AB00006D14DF6FF77394046F48057394305E0AB
:101AC00047F6FF57394044F48057394382830184F5
:101AD000F0BD828B4FF6F3731A408283828B0A43E8
:101AE00082837047F0B50C4615460022002100267F
:101AF000078C4FF6FF6C07EA0C070784828B018C7A
:101B000027063E0C4FF60C773A401F0545EA17476B
:101B10003A43BC4FB8420ED0BB4FB8420BD0B0F1E5
:101B2000804F08D0B94FB84205D0B94FB84202D063
:101B3000B84FB84206D14FF6FF57394046F4807788
:101B4000394305E04FF2FF57394044F48077394379
:101B500082830184F0BD028B4FF2FF331A4002836F
:101B6000028B0B0642EA134202837047F0B50C4623
:101B70001546002200210026078C4FF6EF7C07EA6D
:101B80000C070784028B018C27053E0C40F6FF47AB
:101B90003A401F0742EA17422F0642EA1742994F7E
:101BA000B8420ED0984FB8420BD0B0F1804F08D059
:101BB000964FB84205D0964FB84202D0954FB842E2
:101BC00006D14FF6DF77394046F01007394305E07C
:101BD0004FF65F77394044F01007394302830184A0
:101BE000F0BD028B4FF6F3731A400283028B0A4357
:101BF00002837047F0B50C46154600220021068C82
:101C00004FF6FE773E400684028B018C4FF60C7631
:101C100032401E0545EA164632437A4EB0420ED097
:101C2000794EB0420BD0B0F1804F08D0774EB04221
:101C300005D0774EB04202D0764EB04206D14FF674
:101C4000FD76314044F00106314305E04FF6F5766C
:101C5000314044F00106314302830184F0BD70B588
:101C600005460C46674885420ED0674885420BD032
:101C7000B5F1804F08D06548854205D0644885425B
:101C800002D06448854200D100E000BF208850B9EE
:101C90002389A28861882846FFF7ACFFE18828469F
:101CA000FFF79FFF25E0208804280AD12389A28816
:101CB00061882846FFF75AFFE1882846FFF74BFF67
:101CC00017E0208808280AD12389A288618828463D
:101CD000FFF708FFE1882846FFF7FBFE09E02389AC
:101CE000A28861882846FFF7B9FEE1882846FFF7F9
:101CF000AAFE70BD2DE9F04105460C4600260127DD
:101D0000608808B9022600E00026A088012801D1D9
:101D1000022700E001272088A0B92389A2886188D2
:101D20002846FFF767FFE1882846FFF75AFF238917
:101D30003A4631462846FFF719FFE1882846FFF763
:101D40000AFF13E02389A28861882846FFF70EFF67
:101D5000E1882846FFF7FFFE23893A4631462846A8
:101D6000FFF748FFE1882846FFF73BFFBDE8F08119
:101D70000A884B881A438B881A43CB881A430B89ED
:101D80001A434B891A438B891A43A0F844207047A1
:101D90004FF6FF71818000210180C1804180017276
:101DA00070470021018041808180C1800181418193
:101DB0008181C181704700210180418001218180A2
:101DC0000021C18001817047002101804180818014
:101DD000C180018141818181704721B1028842F037
:101DE0000102028004E002884FF6FE731A4002806E
:101DF000704789B1B0F8442042F40042A0F8442072
:101E000010E00000002C01400034014000040040BC
:101E100000080040000C0040B0F84420C2F30E025D
:101E2000A0F84420704710B51AB183890B43838111
:101E300004E08389CC43A4B22340838110BD818216
:101E4000704741EA0203A0F84830704710B51AB154
:101E500083890B43838104E08389CC43A4B223406C
:101E6000838110BD01894FF6F872114001817047DE
:101E70000A46002101894FF68F73194011430181F1
:101E8000704730B504460D4629462046FFF7F0FF5F
:101E9000208940F00700208130BD2DE9F041044643
:101EA0000D4616461F46602D06D13B46012231469F
:101EB0002046FFF75BFE05E03B4601223146204607
:101EC000FFF798FE29462046FFF7D2FF208940F011
:101ED00007002081BDE8F08130B50C460021018962
:101EE000C9B21D0642EA154525432943018130BD8B
:101EF0002DE9F04105460E46174698460024434614
:101F00003A4631462846FFF7E7FF2C894FF6F8712D
:101F10000C4044F007044FF68F710C4044F07004FD
:101F20002C81BDE8F081F0B504460D4616461F46EB
:101F30003B46324629462046FFF7CEFF208940F433
:101F400080402081F0BD0185828270470A460021D1
:101F500001884FF68F731940114301807047F0B527
:101F60000C4615461E460021002200230189028BE3
:101F7000038C4FF6F877394021434FF6FC473A403F
:101F800040F201173A434FF6DD773B40370545EA0B
:101F900017473B43018102830384F0BD0A460021B9
:101FA000018B4FF68F7319401143018370470A4626
:101FB0000021018B48F6FF731940130641EA1341D3
:101FC000018370470A460021818B4FF68F731940B9
:101FD0001143818370470A460021818B48F6FF73C5
:101FE0001940130641EA13418183704721B10288E9
:101FF00042F08002028004E002884FF67F731A40AC
:102000000280704721B1828842F00402828004E09D
:1020100082884FF6FB731A408280704721B1828814
:1020200042F00802828004E082884FF6F7731A407B
:102030008280704721B1828842F00102828004E0F0
:1020400082884FF6FE731A40828070470A4600214C
:10205000018B4FF6F77319401143018370470A460D
:102060000021018B4FF2FF731940130641EA13411F
:10207000018370470A460021818B4FF6F7731940A0
:102080001143818370470A460021818B4FF2FF7311
:102090001940130641EA1341818370470A46002123
:1020A000018B4FF6FB7319401143018370470A46B9
:1020B0000021018B4FF6FF331940130641EA13410B
:1020C000018370470A460021818B4FF6FB7319404C
:1020D0001143818370470A460021818B4FF6FF33FD
:1020E0001940130641EA1341818370470A460021D3
:1020F000018B4FF67F7319401143018370470A46E5
:102100000021018BC1F30E01130641EA1341018343
:1021100070470A460021818B4FF67F7319401143A7
:10212000818370470A460021818BC1F30E0113069B
:1021300041EA1341818370470A460021018C4FF622
:10214000FD7319401143018470470A460021018C38
:102150004FF6F77319401143018470470A46002176
:10216000018C4FF6DF731940130541EA13410184D6
:1021700070470A460021018C4FF67F731940130502
:1021800041EA1341018470470A460021018C4FF651
:10219000FF531940130641EA1341018470470A4670
:1021A0000021018C4FF2FF731940130641EA1341DD
:1021B000018470470A460021018C4DF6FF731940D7
:1021C000130741EA13410184704730B5002301240D
:1021D0008C40A3B2048CDD43ADB22C400484048C4B
:1021E00002FA01F5ADB22C43048430BD30B50023B2
:1021F00004248C40A3B2048CDD43ADB22C40048493
:10220000048C02FA01F5ADB22C43048430BD70B5E4
:102210000346002000241846183001258D40ACB23A
:102220001D8CE643B6B235401D8409B1082909D199
:1022300000EB6100056825F0700505600568154331
:1022400005600CE00D1FADB200EB6500056825F4DC
:10225000E04505600568160645EA1645056070BD4F
:1022600021B1028842F00202028004E002884FF6A7
:10227000FD731A400280704721B1028842F00402C7
:10228000028004E002884FF6FB731A400280704718
:1022900021B1828842F08002828004E082884FF679
:1022A0007F731A408280704702884FF6F7731A4096
:1022B000028002880A430280704782884FF68F733B
:1022C0001A40828082880A438280704702894FF6D2
:1022D000F8731A40028102890A4302817047028919
:1022E0004FF67F731A40028102890A4302817047C8
:1022F0008184704781857047818670470187704768
:1023000081877047A0F84010704702884FF6FF435E
:102310001A40028002880A43028070470146888E74
:1023200070470146088F70470146888F7047014605
:10233000B1F8400070470146888C70470146088D0F
:10234000704702460020138A0B4201D0012000E0B2
:1023500000207047CA430282704730B50246002011
:1023600000230024158A05EA0103958905EA010482
:1023700013B10CB1012000E0002030BDCA4302823D
:102380007047000010B50446FC48844209D1012181
:102390008803FFF7CEF800214FF48040FFF7C9F81B
:1023A00032E0F748844209D101214804FFF7CEF812
:1023B00000214FF40030FFF7C9F825E0F1488442CE
:1023C00009D101218804FFF7C1F800214FF48020D2
:1023D000FFF7BCF818E0EC48844209D10121C80499
:1023E000FFF7B4F800214FF40020FFF7AFF80BE03F
:1023F000E648844208D101210805FFF7A7F800212B
:102400004FF48010FFF7A2F810BD2DE9F04786B019
:1024100005460E460024A24600BFA1460027B0890B
:1024200000B100BF2F462C8A4CF6FF700440F088A4
:1024300004432C82AC894EF6F3100440B0883189F5
:102440000843718908430443AC81AC8A4FF6FF40CE
:102450000440B0890443AC8201A8FEF7E3FFC748FB
:10246000874202D1DDF810A001E0DDF80CA0A889B8
:1024700010F4004F08D00AEBCA0000EB0A103168D4
:102480004900B0FBF1F807E00AEBCA0000EB0A10C4
:1024900031688900B0FBF1F86420B8FBF0F004016A
:1024A0002009642101FB1089A88910F4004F08D08D
:1024B000322000EBC900B0FBF1F000F0070004434C
:1024C00008E0322000EB09106421B0FBF1F000F0CD
:1024D0000F0004432C8106B0BDE8F0874FF416517D
:1024E000016000218180C18001810C214181002196
:1024F0008181704710B502460020108A4FF2FF0319
:1025000018400B884C8823438C882343CC88234372
:102510001843108210BD0021018041808180C1805C
:10252000704721B1828942F40052828104E082899D
:102530004DF6FF731A4082817047F0B503460024C0
:10254000002600250020A1F510676A3F00D100BFDA
:102550001846C1F3421401F01F06012707FA06F5D9
:10256000012C01D10C3004E0022C01D1103000E02C
:1025700014301AB107682F43076002E00768AF43C1
:102580000760F0BD10B51AB1838A0B43838204E063
:10259000838ACC43A4B22340838210BD028A4FF6C3
:1025A000F0731A400282028A0A43028270478289CB
:1025B0004FF2FF731A40828182890A4382817047F9
:1025C00021B1828942F00202828104E082894FF6C1
:1025D000FD731A4082817047028A4FF6DF731A40FA
:1025E0000282028A0A430282704721B1028A42F4BF
:1025F0008042028204E0028A4BF6FF731A40028294
:102600007047C1F308028280704701468888C0F392
:1026100008007047818941F0010181817047028B78
:10262000D2B20283028B42EA012202837047028BFC
:1026300002F47F420283028B0A430283704721B176
:10264000828A42F02002828204E0828A4FF6DF739F
:102650001A408282704721B1828A42F0100282823F
:1026600004E0828A4FF6EF731A408282704721B1EC
:10267000828A42F00802828204E0828A4FF6F7736F
:102680001A408282704721B1828942F400428281DD
:1026900003E08289C2F30E028281704721B1828AEF
:1026A00042F40062828204E0828A4FF2FF731A4091
:1026B00082827047828A4FF6FB731A408282828A36
:1026C0000A438282704721B1828A42F002028282EA
:1026D00004E0828A4FF6FD731A40828270470246F8
:1026E0000020B1F5007F00D100BF13880B4201D05C
:1026F000012000E00020704701F40072B2F5007F75
:1027000000D100BFCA430280704770B50246002462
:10271000002300250020A1F510666A3E00D100BF0D
:10272000C1F3421501F01F03012606FA03F3012D40
:1027300002D19689334006E0022D02D1168A334039
:1027400001E0968A33400C12012606FA04F416883A
:10275000344013B10CB1012000E0002070BD10B571
:1027600000220023A1F510646A3C00D100BF0A12C8
:1027700001249440A3B2DC43048010BD0038014022
:102780000044004000480040004C00400050004021
:1027900070B500240025FEF74BFD4FF48030FEF7A6
:1027A00067FD00BFFEF7A3FD0546641C1DB96FF071
:1027B0007F408442F6D3FEF79AFD08B900BFFEE7DA
:1027C0001020FDF7C1FE0220FDF7AAFE4FF4E01134
:1027D0004FF48030FEF7B0FD0020FEF7CAFD4FF445
:1027E0008060FEF7CFFD0020FEF7D5FD0120FEF74B
:1027F000AFFD002400E0641C3920FEF75CFD18B931
:102800006FF07F408442F6D33920FEF754FD08B9BB
:1028100000BFFEE70220FEF79EFD002400E0641CDE
:10282000FEF7A2FD082803D06FF07F408442F6D364
:10283000FEF79AFD082801D000BFFEE770BD10B575
:1028400000214FF00060FDF791FD4FF4A060FDF70F
:102850004DFD10BD10B5FFF79BFFFFF7F0FF4FF4E4
:10286000165000F07AF800F015F900F0C1FA00F007
:10287000FEF910BD00B585B06846FEF7D3FD01989E
:1028800005B000BD10B5FFF7F5FF0446204610BDAA
:1028900070B504460D4600BF80213648FFF71FFF84
:1028A0000028F9D0A1B23348FFF7ABFE204670BD37
:1028B00010B5044621464FF48040FEF720FE214625
:1028C0000420FEF71CFE10BD08B525208DF8000081
:1028D00000208DF8010001208DF802008DF8030022
:1028E0006846FDF708FD08BD1CB54FF40070ADF853
:1028F000040018208DF8070003208DF806004FF41F
:102900008060ADF8000004208DF8030001A91A488A
:10291000FEF74AF969461848FEF746F91CBD1FB58F
:10292000044600940020ADF80400ADF80600ADF8B0
:102930000800ADF80C000C20ADF80A0069460D48FF
:10294000FFF763FD012240F225510A48FFF7F5FD2C
:1029500001210848FFF7E5FD1FBD10B50446012021
:10296000FFF7A6FFFFF7C0FFFFF7AEFF2046FFF718
:10297000D6FF10BD003801400008014008B5FF2017
:102980008DF8000000208DF801008DF80200012074
:102990008DF803006846FDF7AEFC08BD10B5FFF7E3
:1029A00071FF4FF47A71B0FBF1F4641EB4F1807FD3
:1029B00002D34FF0FF3010BD4FF0E02044610069BA
:1029C00040F004004FF0E02108610846006940F043
:1029D00002000861002088610846006940F001009B
:1029E00008610020E7E710B5FFF7C8FFFFF7D6FF43
:1029F000401C01D1401E10BD0020FCE710B504466C
:102A000021464FF40010FEF787FD21460820FEF70F
:102A100076FD21460120FEF772FD10BD1CB5402059
:102A2000ADF804001C208DF8070003208DF8060087
:102A30008020ADF800001C208DF8030003208DF8E5
:102A4000020001A95B48FEF7AFF869465948FEF756
:102A5000ABF81CBD1FB55848FEF7F2F90020ADF8E1
:102A600004004BF6FF70ADF806003020ADF808000A
:102A70004FF48060ADF80A000001ADF80C004F483B
:102A8000009001214C48FEF772FA69464A48FEF769
:102A9000F0F91FBD10B50120FFF7B0FFFFF7BEFF33
:102AA000FFF7D8FF10BD2DE9F04105460C4616464C
:102AB0001F46DDF818800CB1FF2C03DD4FF0FF300E
:102AC000BDE8F08101213C48FEF775FA00BF3C49A2
:102AD0003948FEF74FFB0028F9D000223946364826
:102AE000FEF7C2FA00BF37493348FEF743FB002820
:102AF000F9D031463048FEF7B1FA00BF3149891CA0
:102B00002D48FEF737FB0028F8D0B8F1000F15D19B
:102B100000BF15F8011B2848FEF7A0FA00BF29499D
:102B2000891C2548FEF726FB2000A4F10101CCB248
:102B3000EFD101212048FEF74AFA38E001211E4872
:102B4000FEF739FA00BF1E491B48FEF713FB0028A9
:102B5000F9D0012239461848FEF786FA00BF184915
:102B6000491C1548FEF706FB0028F8D000BF012CD1
:102B700007D100211048FEF736FA01210E48FEF772
:102B800026FA00BF0E493F310B48FEF7F3FA002842
:102B9000F8D00948FEF764FA28706D1C2000A4F1F3
:102BA0000101CCB2E3D101210348FEF71CFA002059
:102BB00086E70000000C014000540040400D030077
:102BC000010003008200070010B5044621460820DA
:102BD000FEF795FC21460120FEF791FC10BD08B5DB
:102BE00017208DF8000001208DF8010002208DF8DB
:102BF000020001208DF803006846FDF77CFB08BD4C
:102C00001CB52020ADF8040010208DF8070003202B
:102C10008DF806004020ADF8000028208DF8030054
:102C200001A95348FDF7C0FF69465148FDF7BCFFB5
:102C300020214F48FEF765F840214D48FEF761F826
:102C40001CBD1CB54020009000208DF80400102011
:102C50008DF8050001208DF806000621FEF7B8F872
:102C60004020FDF74CFC6846FDF7CBFB1CBD10B5C2
:102C70000120FFF7A9FFFFF7C3FFFFF7E2FFFFF710
:102C8000AEFF10BD002107E0002201E0531C9AB204
:102C9000092AFBDB4B1C99B28142F5DB704710B56A
:102CA00020213348FEF72BF80C20FFF7EBFF202103
:102CB0002F48FEF726F84CF25030FFF7E3FF10BD27
:102CC0002DE9F0478AB04FF0FF3600240027A046D8
:102CD0002821684602F057FA2FE0002025490870A5
:102CE000FFF7DDFF2348007800EB4001C1EBC01087
:102CF0002149096801EBC0083A2098FBF0F4002C48
:102D00000BDDB4F5AF7F08DA204602F0A0FA3146B9
:102D1000721C56B24DF821000FE0B4F5AF7F06DB10
:102D2000164A3046711C4EB24DF8202005E00022B4
:102D30003046711C4EB24DF82020092ECDDB002507
:102D40000DE0384602F083FA82465DF8251002F065
:102D500026FA814602F089FA0746681C45B20A2D18
:102D6000EFDB0A2097FBF0F738460AB0BDE8F087A2
:102D7000000C0140280000202C0000200000AF4380
:102D800010B5044621460420FEF7C6FB10BD08B569
:102D90001E208DF8000000208DF8010002208DF823
:102DA000020001208DF803006846FDF7A4FA08BD73
:102DB0000EB52320ADF800000020ADF8020040F26F
:102DC000E730ADF804000020ADF8060069460D4874
:102DD000FEF7D4FC01210B48FFF7D0FA012211467F
:102DE0000848FFF720F800210648FEF7F6FF0EBD61
:102DF00010B50120FFF7C4FFFFF7C9FFFFF7D8FFA9
:102E000010BD00000008004072B6704762B67047FF
:102E1000EFF3108072B6704780F310887047B0FAF5
:102E200080F0704790FAA0F0704730BF704720BF25
:102E300070470000EFF3108072B6704780F310887F
:102E400070471D484FF0FF010170002080F3098892
:102E50001A48012101701A484FF08051016062B692
:102E6000FEE717484FF080510160704714484FF05B
:102E700080510160704772B6EFF3098028B12038A5
:102E800080E8F00F0F490968086000B50E488047D8
:102E90005DF804EB0D480E490A78027009480D49A7
:102EA0000A680260106890E8F00F203080F309880B
:102EB0004EF0040E62B6704722ED00E05200002092
:102EC00004ED00E0580000202F4E00084B000020C9
:102ED0004C000020600000200246002005E011F8B0
:102EE000013B02F8013B431CD8B20B78002BF6D112
:102EF000137070472DE9F04105460E461446002731
:102F0000FC480078002804DD112020700020BDE876
:102F1000F0812878012808D0022807D0032802D0A1
:102F2000042804D100E000BF00BF00BF03E001207F
:102F300020700020EBE700BFFFF77CFF074605F19C
:102F40000F013046FFF7C8FF80463846FFF776FF8F
:102F5000002020704046DAE70146002002E0491CCC
:102F6000421CD0B20A78002AF9D170472DE9F0410D
:102F700005460F4614464FF00008DE48007800284A
:102F800003DD12202070BDE8F0812878012808D0E8
:102F9000022807D0032802D0042804D100E000BF93
:102FA00000BF00BF02E001202070ECE700BFFFF788
:102FB00041FF80463846FFF7CFFF06460F2E05DD5E
:102FC0004046FFF73BFF0B202070DCE7394605F158
:102FD0000F00FFF781FF4046FFF730FF0020207011
:102FE00000BFD0E7F0B5024612F8344F9578567816
:102FF000A2F134020B4618680FE000F10B073F5DA9
:10300000B74300F10B0C0CF8047067463F5D17B92D
:10301000877AAF4387721B1D18680028EDD1F0BD79
:10302000B549B64A1278885CB549095CB24A515C28
:1030300001EBC001B34A1170704710B50024FFF7CF
:10304000F9FE0446AB480078F0B9AF480078D8B92B
:10305000FFF7E6FFAB480078AC490978884213D007
:10306000AB48A849097850F82100AA4908600846E9
:103070000068806B401C09688863A7480068401C92
:10308000A5490860FFF7EDFE2046FFF7D7FE10BD0B
:1030900070B501460024A14D2D68EC619F4C246859
:1030A00021620B4618681BE09C4C246894F834504D
:1030B00000F10B04645D994D2D6895F835502C4353
:1030C000964D2D6895F8346000F10B05AC55847A67
:1030D000924D2D6895F836502C4384721B1D18684C
:1030E0000028E1D18D4C246894F83420844CA45CF1
:1030F0008A4D2D6895F83550AC43814DAC542C4623
:10310000A45C44B9854C246894F836507B4C2478F0
:10311000AC437A4D2C7070BD2DE9FF4F83B08046D3
:103120000E461546109F002001903060C146D9F828
:10313000004018E02078012807D0032804D0042894
:1031400005D0052802D103E008E007E000BF00BF7A
:1031500001203870002007B0BDE8F08F00BF09F1F2
:103160000409D9F80040002CE4D162480078002816
:1031700003DD022038700020EDE763480078002866
:1031800003DD0D2038700020E5E7FFF753FE0190C6
:103190000020029082468346C146D9F800403DE0B7
:1031A0002078012819D0032804D0042827D0052826
:1031B00024D125E0208900280CDD2089401E2081B3
:1031C00010C601200290002001C50AF101001FFA7B
:1031D00080FA01E04BF0010B1BE0606858B16068B9
:1031E00001C50020606010C6012002900AF10100B4
:1031F0001FFA80FA01E04BF0020B0AE000BF00BFAB
:103200000198FFF71BFE0020306001203870504607
:10321000A1E700BF09F10409D9F80040002CBFD193
:103220000298012808D1002030600198FFF706FEBF
:103230000020387050468EE73848006890F830001B
:103240004BF0800108433549096881F830000020BF
:103250003249096881F83100304906980968C88503
:103260004046FFF715FF0198FFF7E8FDFFF7E5FE81
:10327000FFF7E0FD01902948006890F8310020B187
:1032800001281BD0022818D100E000BF23480068A5
:10329000C4693CB110C6002030600AF101001FFA79
:1032A00080FA09E001201D49096881F83100414692
:1032B0001A480068FFF796FE06E000BF414617482F
:1032C0000068FFF78FFE00BF00BF1448006890F849
:1032D000310020B101283ED002283BD135E02078D2
:1032E000062823D2DFE800F0221C1D03232400203F
:1032F00001C526E049000020645600084D0000206A
:103300004E0000204C0000204A0000204B0000200E
:1033100044070020600000203000002058000020FA
:1033200000BFF8480068406A01C50AE000BF00BF5E
:103330000198FFF783FD002030600120387050466F
:1033400009E700BF002038700AE0002001C50E2008
:10335000387005E000BF002001C50A20387000BFAA
:1033600000BF0020E749096881F83000E549096895
:1033700081F83100E3490968C861E24909680862D7
:10338000E049096848620198FFF758FD5046E2E6B7
:103390007CB5002514E06946284601F040FB06464E
:1033A00066B9D94850F8254044B1012C06D0D4E97B
:1033B000020100EB810060640198A064681CC5B242
:1033C0001F2DE8DD7CBD002402E0C82001F0EAFBEF
:1033D000CE4800780028F8D0CD4800686421B0FBC2
:1033E000F1F0CB4908600846006828B90020C949B7
:1033F0000870FF2001F055FB00BFFFF71BFD0446DE
:10340000C5480068C54908600020C34908602046D7
:10341000FFF714FDC1480068BD490968B0FBF1F031
:10342000C0F16400BB49087001F0B0FCFFF7B0FFC9
:10343000642001F0B7FBE0E700B587B0032300226A
:103440008021B748CDE90323CDE901014FF6FE7392
:1034500000931E2300F5FE720021AFF2950001F0EB
:10346000D6F806AAAFA11E2001F047FA07B000BDAA
:10347000002400BFFFF7DEFC0446A7480068401C9C
:10348000A54908602046FFF7D9FC01F07BFCF1E775
:1034900000B587B0032300228021A648CDE903238D
:1034A000CDE901014FF6FF7300931F2300F5FE7273
:1034B0000021AFF2430001F0AAF806AA9EA11F2046
:1034C00001F01BFA07B000BD04E0002200F8012B58
:1034D0004A1E91B20029F8DC704730B54FF4A07154
:1034E0009948FFF7F1FF984B03F1200500240AE00B
:1034F000002018705D603F20D873002119742033BC
:103500002035601C84B2092CF2DB00201870586052
:103510003F20D873002119748B488C49086030BD56
:1035200030B54FF48A618A48FFF7CEFF8021764894
:10353000FFF7CAFF864B03F15C0500240AE05D61DA
:103540003F2083F84C0000214D20C1545C335C3592
:10355000601CC4B20B2CF2D3002058613F2083F8CA
:103560004C0000214D20C15400207A490860784861
:103570007949086030BD0022784B1A7078490020E4
:1035800004E0002201F8012B421CD0B20428F8DB31
:103590000022744B1A70744B1A70744B1A60594B9A
:1035A0001A607047002072490860724908707249B9
:1035B000087072490870724908707249086056496B
:1035C00008605649086052490860504908707047C1
:1035D00010B501F0C9FBFFF7E5FFFFF7CCFFFFF7E0
:1035E0009FFFFFF77AFF00F0CDFEFFF751FFFFF7D7
:1035F00023FF01F0BAFB10BD61480078012808D113
:103600005C480078FF2804D25A480078401C594989
:103610000870704710B5002459480078012830D14F
:10362000FFF708FC044653480078002804DD5148A1
:103630000078401E4F4908704E480078F0B94E4857
:103640000078D8B9FFF7ECFC47480078454909787D
:10365000884213D02C484449097850F82100434946
:10366000086008460068806B401C0968886345480C
:103670000068401C43490860FFF7F8FB2046FFF74D
:10368000DDFB10BD10B500243D480078012811D1A4
:10369000FFF7D0FB04463748007840B93648007839
:1036A000FF2804D234480078401C33490870204673
:1036B000FFF7C4FB10BD10B5002431480078012885
:1036C00065D1FFF7B7FB04462B48007800285BDD87
:1036D00029480078401E284908700846007860B9DB
:1036E0002448007828B92046FFF7A8FBFFF7A5FC7F
:1036F0004DE02046FFF7A2FB49E02046FFF79EFB86
:1037000045E0000058000020440700204800002049
:10371000400000203C000020540000204400002015
:103720004403002075432F4F532D494920537461A2
:10373000740000004405002075432F4F532D494964
:103740002049646C650000007801002034000020EE
:10375000C4070020640000205C0000204D00002011
:103760004E0000204B0000204C0000206000002094
:103770006C000020490000204A0000205300002077
:1037800052000020300000202046FFF757FB10BDFC
:1037900010B5EE48007890B9FFF742FCEC4800788D
:1037A000EC490870EC48EA49097850F82100EB49E7
:1037B000086008460068EA490860FFF742FB10BD50
:1037C00010B50024022001F0EDF9FFF733FB0446A9
:1037D0000020E44908602046FFF730FB642001F038
:1037E000E1F9FFF727FB0446DE480068DE49086080
:1037F0000120DE4908702046FFF720FB10BD70B5A0
:10380000002601F01EFBFFF715FB0646D8480068AE
:10381000401CD74908603046FFF710FBCB480078C2
:10382000012858D1D348007820B1012804D00228BB
:1038300009D103E001250BE0002509E00125012065
:10384000CC49087004E001250020CA49087000BF77
:1038500000BF05B970BDC848046838E0FFF7EAFA50
:103860000646E08D78B3E08D401E0004000CE08534
:1038700029D194F8300010F0370F09D014F8300F28
:1038800020F03700207001206070A4F1300402E0C5
:10389000002084F8310094F8300010F0080F12D1A5
:1038A00004F13404A078B549097840EA0100B3492D
:1038B00008702078B249085C617840EA010014F889
:1038C0003419AF4A505464693046FFF7B7FA94F898
:1038D00032001F28C2D100BFBCE74FF48F70704781
:1038E000704710B590F8342001F10B039B5C90F801
:1038F0003540A34301F10B04A35423469B5C23B939
:103900008B7A90F83640A3438B7210BD2DE9F04FAF
:1039100005460F4690469946A87A9A490E5C05F1ED
:103920000B00805D11F800B00BEBC60000F0FF0A41
:10393000894850F82A40002004F12404608127605F
:10394000207B20EA0800207384F80D90207BA4F1EE
:10395000240410F0080F0DD194F836008749097837
:103960000843864908708648805D94F835100843FE
:103970008349885529462046FFF7B3FF206A20B1C6
:103980002046216AFFF72EFBE5615046BDE8F08F27
:1039900010B5734A1268D061714A126892F83430D7
:1039A00000F10B02D25C6E4B1B6893F835301A4362
:1039B0006B4B1B6893F8344000F10B031A55827A65
:1039C000674B1B6893F836301A438272644A126858
:1039D00092F834106A4A525C614B1B6893F8353098
:1039E0009A43674B5A541A46525C42B95C4A126871
:1039F00092F83630614A12789A43604B1A7010BDC3
:103A00000023837200F10B01002204E0002301F87F
:103A1000013B531CDAB2042AF8DB704705E011F8C9
:103A2000013B00F8013B531E9AB2002AF7DC7047B5
:103A30002DE9F84F05460E4617469846DDE90BABD3
:103A4000DDF8289000200090FFF7F4F900904E4830
:103A50000468ECB304F1180454F8040C4A490860F3
:103A60000098FFF7EBF944F8186CA5760020207653
:103A70006076E08244F814AC44F80C9C44F8107C66
:103A800024F808BC24F8068CE077E810207705F0CD
:103A90000700E076217F01208840A077E17E0120A9
:103AA0008840607700206060A0602061E060206254
:103AB000A0626062E06220633F2084F83400A4F1D9
:103AC00018044FF000014FF04D000155204600E072
:103AD00036E001F0B0F9204601F048F9FFF7AAF905
:103AE00000901D4840F82540234800686061002090
:103AF000A0612148006810B11F48006884611E4819
:103B0000046004F13404A0781C49097840EA0100FB
:103B10001A49087020781A49085C617840EA010067
:103B200014F83419164A50541848007800F101006E
:103B3000164908700098FFF781F90020BDE8F88F5A
:103B40000098FFF77BF94220F8E7000052000020C0
:103B50004C0000204B0000204407002060000020A3
:103B600058000020540000204000002048000020A1
:103B70006C00002068000020640000204D00002040
:103B80004E000020645600085C0000205300002016
:103B90002DE9F05F05460F4691461E464FF0000B9B
:103BA0002878052804D0012030700020BDE8F09F5F
:103BB00009F0800ABAF1000F04D029F080094FF013
:103BC000010801E04FF0000800203070FFF732F9E3
:103BD0008346B9F1000F2CD0B9F1010F3BD0B9F1F8
:103BE000020F03D0B9F1030F46D111E0288900EA92
:103BF0000704BC4206D1B8F1010F05D12889A043C2
:103C0000288101E0702030705846FFF717F93AE03C
:103C1000288900EA070434B1B8F1010F05D12889D9
:103C2000A043288101E0702030705846FFF706F964
:103C300029E0288927EA0004BC4206D1B8F1010F27
:103C400005D128892043288101E070203070584632
:103C5000FFF7F4F817E0288927EA000434B1B8F137
:103C6000010F05D128892043288101E070203070A0
:103C70005846FFF7E3F806E05846FFF7DFF8002460
:103C80006F20307000BF00BF20468FE72DE9F04164
:103C900006460D460027FB480078002804DD10206A
:103CA00028700020BDE8F081FFF7C4F80746F64809
:103CB000046894B100684068F349086005202070EA
:103CC0002681002060603F20A0720021E17238460A
:103CD000FFF7B4F80020287004E03846FFF7AEF88C
:103CE000722028702046DDE730B501464A68086832
:103CF0002AB9CC68606028B10025456002E01060F8
:103D000000B142608B6800259D6230BDF0B506466B
:103D10000F46B468002004F12C04608027802079CD
:103D200020F0200020714FF0000060712079A4F194
:103D30002C04A8B904F13404A078D449097840EAE5
:103D40000100D24908702078D149085C617840EAC6
:103D5000010014F83419CE4A50544FF0010500E028
:103D600000253046FFF7C0FF2846F0BD2DE9F0479B
:103D70000446894615464FF0000AC24800780028DC
:103D800004DD0F2028702046BDE8F0872078052844
:103D900003D0012028702046F6E7FFF74BF8824653
:103DA000606808B1012700E00027B9F1000F03D0D7
:103DB000B9F1010F40D11BE09FB93F20A072002153
:103DC000E17200202070B04800686060002020810F
:103DD000AD4804605046FFF731F8002028700026F7
:103DE00005E05046FFF72AF84920287026462AE0C9
:103DF000D4F8048005E000214046FFF787FFD8F89B
:103E00000080B8F1000FF6D13F20A0720021E172CE
:103E1000002020709C4800686060002020819A4843
:103E200004605046FFF70AF8012F01D1FFF705F9AA
:103E300000202870002606E05046FEF7FFFF07200E
:103E40002870264600BF00BF30469DE72DE9F041AF
:103E500005460E46144600278A480078002804DDEF
:103E6000112020700020BDE8F081FEF7E3FF074637
:103E70002878052806D03846FEF7E0FF012020709C
:103E80000020F0E705F10A013046FFF725F88046EB
:103E90003846FEF7D3FF002020704046E3E72DE9C7
:103EA000F04105460F4614464FF00008754800786B
:103EB000002803DD12202070BDE8F081FEF7BAFF74
:103EC00080462878052805D04046FEF7B7FF012038
:103ED0002070F1E73846FFF73FF806460F2E05DD64
:103EE0004046FEF7ABFF73202070E5E7394605F149
:103EF0000A00FEF7F1FF4046FEF7A0FF0020207009
:103F000000BFD9E7F0B51446059E624F3F6897F8A9
:103F1000307047F02007DFF87CC1DCF800C08CF877
:103F200030700027DFF86CC1DCF800C08CF831700D
:103F3000584F3F68FE85574F3F68B9620C828B74BB
:103F4000544F3F688F6047680F6000274F60C8601C
:103F5000456805B1696041604E4F3F6897F834206D
:103F60004B4FBF5CDFF82CC1DCF800C09CF835C0BB
:103F700027EA0C07DFF818C10CF802706746BF5C2F
:103F80005FB9444F3F6897F836C0404F3F7827EA03
:103F90000C07DFF8F8C08CF80070F0BD2DE9FF4F7A
:103FA00087B005460F469146149E00200190354883
:103FB0000078002805DD0220307000200BB0BDE83D
:103FC000F08F35480078002803DD0D203070002088
:103FD000F4E72878052803D0012030700020EDE7B1
:103FE00009F0800ABAF1000F04D029F080094FF0DF
:103FF000010801E04FF00008FEF71CFF0190B9F145
:10400000000F57D0B9F1010F77D0B9F1020F03D0EB
:10401000B9F1030F70D120E0288900EA0704BC42FF
:104020000FD1B8F1010F02D12889A0432881194886
:10403000006884850198FEF701FF0020307020465B
:10404000BCE70A9B00934B463A4602A92846FFF775
:1040500059FF0198FEF7F2FE77E0288900EA07048D
:10406000E4B1B8F1010F02D12889A04328810948A1
:10407000006884850198FEF7E1FE0020307020463C
:104080009CE7000049000020380000204D0000207F
:104090004E000020580000204A0000200A9B009398
:1040A0004B463A4602A92846FFF72CFF0198FEF737
:1040B000C5FE4AE0288927EA0004BC420FD1B8F1C6
:1040C000010F02D1288920432881BF4800688485D8
:1040D0000198FEF7B3FE0020307020466EE70A9B81
:1040E00000934B463A4602A92846FFF70BFF01987A
:1040F000FEF7A4FE29E000E01FE0288927EA00047B
:104100007CB1B8F1010F02D1288920432881AE4843
:10411000006884850198FEF791FE002030702046EB
:104120004CE70A9B00934B463A4602A92846FFF704
:10413000E9FE0198FEF782FE07E00198FEF77EFE99
:1041400000246F203070204638E700BFFEF775FF6F
:10415000FEF770FE01909C48006890F8310020B393
:104160009948006890F831B000209749096881F8B3
:10417000310002A8FFF7B8FD00209349096881F8D3
:1041800030000198FEF75AFE0024BBF1010F06D063
:10419000BBF1020F02D10E20307003E000BF0A20F5
:1041A000307000BF00BF204608E787480068848D54
:1041B000B8F1010F1ED1B9F1000F0ED0B9F1010F06
:1041C0000CD0B9F1020F03D0B9F1030F0AD100E00E
:1041D00000BF2889A04328810BE000BF2889204325
:1041E000288106E00198FEF729FE6F20307000203C
:1041F000E4E600BF0198FEF721FE00203070204663
:10420000DCE670B50025FEF715FE05466E48006831
:10421000848D2846FEF712FE204670BD2DE9FC5F16
:104220000446894692461E460020009020780528C4
:1042300004D0012030700020BDE8FC9FFEF7FAFD9D
:104240000090BAF1000F03D0BAF1010F0AD104E0D7
:10425000208920EA090020810BE0208940EA09003A
:10426000208106E00098FEF7E9FD71203070002003
:10427000E2E700BF4FF0000B656855E0A87C40B353
:10428000012838D0022802D0032844D111E0208927
:10429000298A00EA0107288AB84209D13946284606
:1042A000FFF734FD8046B8F1010F01D14FF0010B4B
:1042B00038E02089298A00EA01074FB139462846AB
:1042C000FFF724FD8046B8F1010F01D14FF0010B3B
:1042D00028E0288A218920EA0107288AB84209D1E2
:1042E00039462846FFF712FD8046B8F1010F01D18B
:1042F0004FF0010B16E0288A218920EA01074FB10F
:1043000039462846FFF702FD8046B8F1010F01D17A
:104310004FF0010B06E00098FEF790FD6F20307023
:10432000002089E700BF2D68002DA7D10098FEF777
:1043300085FDBBF1010F01D1FEF77FFEFEF77AFD8F
:104340000090208901900098FEF778FD00203070E1
:10435000019871E72DE9F04104460D4600272078C9
:10436000052804D0012028700020BDE8F081FEF768
:1043700061FD074626893846FEF760FD002028705B
:104380003046F2E770B58C211048FFF79DF80F4CCE
:1043900004F11C0600250AE00020207066603F2022
:1043A000A0720021E1721C341C36681C85B2042DF9
:1043B000F2DB0020207060603F20A0720021E172DB
:1043C00002480349086070BD58000020B802002070
:1043D000380000202DE9F34F85B088460020019079
:1043E000FEF728FD0190FF4850F8280030B10198F1
:1043F000FEF724FD282007B0BDE8F08F0598FF28C0
:1044000004D1F948006890F832000590F549059804
:1044100051F8205025B90198FEF710FD2920EAE750
:10442000012D04D10198FEF709FD4320E3E74FEA8F
:10443000E80708F0070003900120B84000F0FF09EA
:1044400001210398814001F0FF0A0021E54A059807
:1044500042F82010104640F8285095F8346095F83E
:104460003600029095F835B0E048805D10EA0B0FF9
:104470001AD0DE48805D20EA0B00DC4988550846EA
:10448000805D28B9DA48007802998843D8490870D5
:10449000D748007840EA0900D5490870D348C05D84
:1044A00040EA0A00D149C855EC69D4B104F10B00C7
:1044B000805D20EA0B0004F10B0188550846805D01
:1044C00018B9A07A02998843A072A07A40EA09003C
:1044D000A07204F10B00C05D40EA0A0004F10B0178
:1044E000C855286A30B3286A0490049804681FE00D
:1044F00004F10B00805D20EA0B0004F10B018855EC
:104500000846805D18B9A07A02998843A072A07A03
:1045100040EA0900A07204F10B00C05D40EA0A0005
:1045200004F10B01C8550498001D04900498046818
:10453000002CDDD185F8328085F83470039885F839
:10454000330085F8369085F835A00198FEF776FCA3
:10455000A8480078012801D1FEF76FFD00204AE746
:104560002DE9FE4F06460F4690461C464FF00009C7
:10457000FEF760FC8146A0480078002805DD48462B
:10458000FEF75CFC3C20BDE8FE8F964850F8240006
:1045900058BB0120934941F824004846FEF74EFCE1
:1045A000002342463946304600F0F4FB82460023A1
:1045B000009301931A46514620460293FFF738FABA
:1045C000054635B98B48007801280CD1FEF735FD3A
:1045D00009E0FEF72FFC81460020824941F82400C3
:1045E0004846FEF72BFC2846CDE74846FEF726FC5A
:1045F0002820C8E712F0010F08D012F0020F05D0F2
:1046000002E0491E002308C00029FAD170472DE9B5
:10461000FF4F85B08046894692461C46DDE912B6BA
:10462000169F00200390FEF705FC03907248007867
:10463000002806DD0398FEF701FC3C2009B0BDE828
:10464000F08F684850F8240088BB0120654941F884
:1046500024000398FEF7F2FB3A4630461499FFF720
:10466000C9FF3B4652464946404600F093FB049042
:10467000DDE914125B468DE8860032462046049937
:10468000FFF7D6F9054635B95A48007801280CD10C
:10469000FEF7D3FC09E0FEF7CDFB03900020514963
:1046A00041F824000398FEF7C9FB2846C6E7FFE758
:1046B0000398FEF7C3FB2820C0E72DE9F04105462B
:1046C00000274D480078002802DD4020BDE8F08139
:1046D0001F2D01D13E20F9E7FEF7ACFB0746FF2D69
:1046E00003D14148006890F832503E4850F82540C8
:1046F00024B93846FEF7A2FB4320E7E7012C04D19A
:104700003846FEF79BFB3D20E0E714F8340F3749AD
:10471000085C617888432178344A505414F834098D
:104720001146085C30B994F8361031480078884357
:104730002F490870E06918B12046E169FFF7D1F808
:10474000206A18B12046216AFEF74CFCA66A16B111
:104750003046FFF7C9FA0020E08584F8300084F87D
:10476000310026480078FF2804D224480078401CF5
:10477000224908703846FEF761FBFFF7B1F8FEF7F3
:1047800059FB07461D480078002804DD1B480078C7
:10479000401E1A490870204600F0EEFA18480078CA
:1047A000401E1749087000200E4941F82500A069F5
:1047B00030B900206169886112496069086005E0CC
:1047C000D4E905014861D4E9051088610E48006804
:1047D00060610D4804603F2084F84C0000214D20AA
:1047E000015513E044070020580000204E0000202F
:1047F0004D00002052000020490000204A00002007
:1048000053000020640000205C0000203846FEF7C2
:1048100015FBDE480078012801D1FEF70EFC0020D0
:1048200054E72DE9F041044600271F2C02D13E2019
:10483000BDE8F081FF2C0BD1FEF7FCFA0746D44807
:10484000006890F837603846FEF7F8FA3046EFE730
:10485000FEF7F0FA0746CF4850F8245025B93846FD
:10486000FEF7ECFA4320E3E7012D04D13846FEF7CA
:10487000E5FA3D20DCE73F2085F837003846FEF7B3
:10488000DDFA0020D4E72DE9F04706460F4614462E
:104890004FF00008C0480078002804DD1120207087
:1048A0000020BDE8F087FEF7C5FA8046FF2E03D151
:1048B000B748006890F83260B64850F8265035B9CD
:1048C0004046FEF7BBFA432020700020E9E7012DA7
:1048D00006D14046FEF7B2FA432020700020E0E700
:1048E00005F14C013846FEF7F7FA81464046FEF7DF
:1048F000A5FA002020704846D3E72DE9F047064688
:10490000884614464FF00009A3480078002803DDCC
:1049100012202070BDE8F087FEF78CFA8146FF2E4A
:1049200003D19B48006890F832609A4850F82650AE
:104930002DB94846FEF782FA43202070EAE7012DA0
:1049400005D14846FEF77AFA43202070E2E7404658
:10495000FEF702FB07460F2F05DD4846FEF76EFA0D
:1049600041202070D6E7414605F14C00FEF7B4FA2D
:104970004846FEF763FA0020207000BFCAE770B512
:1049800005460026FEF756FA0646824850F82540AE
:1049900024B93046FEF752FA462070BD012C04D1EE
:1049A0003046FEF74BFA4320F7E794F8300010F05A
:1049B000080F2FD014F8300F20F00800207014F8E2
:1049C000300910BBE08DE0B904F13404A0787349DC
:1049D000097840EA01007149087020787049085C44
:1049E000617840EA010014F834196D4A5054304699
:1049F000FEF724FA65480078012809D1FEF71DFB6F
:104A000006E03046FEF71AFA02E03046FEF716FAE4
:104A10000020C2E73046FEF711FA4420BDE72DE939
:104A2000F04707460D464FF0000A002028606860F6
:104A3000FEF700FA8246FF2F03D15548006890F830
:104A40003270544850F827402CB95046FEF7F6F91A
:104A50004320BDE8F087012C04D15046FEF7EEF963
:104A60004320F6E7208A10F0010F04D15046FEF7EC
:104A7000E5F94520EDE70026D4F80C90D4F808803D
:104A80005046FEF7DBF900E0761C58F8041B0029BD
:104A9000FAD0B0002860A9EB060080006860002012
:104AA000D7E72DE9F04105464FF00008FEF7C2F9BF
:104AB0008046FF2D05D13648006890F83250012617
:104AC00008E03348006890F83200A84201D101267E
:104AD00000E000262F4850F825402CB94046FEF74C
:104AE000ADF94820BDE8F081012C04D14046FEF725
:104AF000A5F94320F6E794F834702948C05D94F88E
:104B0000351088432649C8550846C05D30B994F829
:104B100036102248007888432049087094F8300005
:104B200040F0080084F830004046FEF787F9012E77
:104B300001D1FEF782FA0020D4E72DE9F0410546C5
:104B40000E460027FEF776F90746FF2D03D11048E1
:104B5000006890F832500F4850F825402CB938467C
:104B6000FEF76CF92920BDE8F081012C04D138460C
:104B7000FEF764F94320F6E75C2221463046FEF753
:104B80004DFF3846FEF75AF90020ECE752000020AE
:104B90005800002044070020490000204D0000205C
:104BA0004E00002070B505460026694800780028B0
:104BB00000DD70BD002D23DDFEF73CF9064665489B
:104BC000006890F834406448005D6249096891F8D3
:104BD00035108843604908550846005D40B95D4876
:104BE000006890F836105D48007888435B4908708B
:104BF00058480068C5853046FEF720F9FEF71DFAD3
:104C000000BFD6E72DE9F0470746884691461E4685
:104C10004F480078002802DD5520BDE8F0874FF4AA
:104C20007A7070434FF47A71B0FBF1F14FF4616028
:104C30007843C8EB081200EB8200484400EB4002C6
:104C4000C2EBC01001EBC004250CA4B22046FFF754
:104C5000A9FF09E04FF40040FFF7A4FF4FF4004024
:104C6000FFF7A0FF681E85B2002DF3DC0020D4E71B
:104C700070B5054600261F2D01DB2A2070BDFEF70A
:104C8000D9F80646364850F8254024B93046FEF794
:104C9000D5F84320F2E7012C04D13046FEF7CEF8D8
:104CA0004320EBE7E08D20B93046FEF7C7F85020EF
:104CB000E4E70020E08594F8300010F0370F09D0C9
:104CC00014F8300F20F03700207001206070A4F13C
:104CD000300402E0002084F8310094F8300010F035
:104CE000080F18D104F13404A0781C49097840EA6F
:104CF00001001A49087020781749085C617840EA79
:104D0000010014F83419144A50543046FEF796F84E
:104D1000FEF793F902E03046FEF790F80020ADE789
:104D200070B50025FEF786F805460E48046828464B
:104D3000FEF784F8204670BD70B504460025FEF7E6
:104D400079F80546074804602846FEF777F870BDF5
:104D500049000020580000204E0000204D00002097
:104D6000440700206C0000207047704710B50446CF
:104D7000204600F0E1F810BD10B50446204600F0D2
:104D8000DCF810BD10B500F0D9F810BD10B500F07A
:104D9000D6F810BD70B5044610464FF0807505601A
:104DA000051F28462C606FF00106051F28462E605F
:104DB0004FF01236051F28462E604FF00336051FB0
:104DC00028462E604FF00236051F28462E607610CA
:104DD000051F28462E60051F284629604FF0113612
:104DE000051F28462E604FF01036051F28462E60FE
:104DF0004FF00936051F28462E604FF00836051F74
:104E000028462E604FF00736051F28462E604FF0CB
:104E10000636051F28462E604FF00536051F28462A
:104E20002E604FF00436051F28462E6070BD10B569
:104E300000F086F810BD10B50446204600F081F859
:104E400010BD704770B50546FDF7CDFD00B170BDD2
:104E5000FEF7B6FC0CE0FDF733FF0446014639A02F
:104E600000F0CEFA0023012219461846FFF7CAFEC9
:104E7000F1E770B538A000F0C3FA3EA000F0C0FA28
:104E8000FEF72BFD0A2190FBF1F201FB1204FEF765
:104E900024FD642190FBF1F201FB12000A2190FB3A
:104EA000F1F5FEF71AFD642190FBF1F623462A4640
:104EB000314637A000F0A4FA4FF47A713BA000F01D
:104EC0009FFA3F4801783FA000F09AFAFDF7D2FC24
:104ED0004249B0FBF1F4214641A000F091FA464866
:104EE000016846A000F08CFA4948016849A000F02A
:104EF00087FA70BD08B5FDF787FFFEF769FBFDF780
:104F0000A9FCFFF7B6FF48A000F07AFA02234A4A4C
:104F100000214A48FFF724FB009049A000F070FAF6
:104F20006A464DA10220FFF7E8FC0020FFF704FFCE
:104F3000FEF72EFC002008BD704770477047704791
:104F40007047704744697374616E636520697320AC
:104F500025640D0A000000000D0A20204D696372CF
:104F600069756D2075432F4F532D494920200D0A37
:104F700000000000202053542053544D3332202889
:104F8000436F727465782D4D33290D0A0D0A0000A8
:104F9000202075432F4F532D49493A202056256C28
:104FA000642E256C64256C640D0A00002020546971
:104FB000636B526174653A20256C6420200D0A00F1
:104FC0003C00002020204350552055736167653A0E
:104FD00020256C6425202020200D0A0040420F006F
:104FE00020204350552053706565643A256C642039
:104FF0004D487A20200D0A006C0000202020235408
:1050000069636B733A20256C6420200D0A00000050
:105010003000002020202343747853773A20256CF9
:105020006420200D0A0D0A004F5320496E69742038
:105030004F4B210D0A000000100E0020454E0008C5
:10504000437265617465204170705F5461736B5386
:1050500074617274210D0A0053746172742054617A
:10506000736B0000704700BFFEE700BFFEE700BFA4
:10507000FEE700BFFEE77047704710B5FDF7DAFEA8
:10508000044635480078401C334908702046FDF737
:10509000D5FEFEF7B4FBFEF7BDFA10BD10B540F229
:1050A00025512E48FDF731FB012811D140F2255141
:1050B0002A48FDF754FB2948FDF7A7FA2849294A51
:1050C0001278885427480078401C2649087004E06C
:1050D0004FF480712148FDF742FB10BD10B501214E
:1050E0002148FDF73AF9012808D101211E48FDF7B2
:1050F00045F91E480078401C1C49087010BD70B569
:105100004020FBF7EBF9012825D14020FBF7F7F908
:1051100040211748FBF7D9FD012808D1002112488A
:10512000FDF7E6F801211048FCF757FE13E0402197
:105130000F48FBF7CAFD70B900210B48FCF74DFE84
:105140000948FDF7F8F8054600F08AF8044600F033
:10515000A5F80849086070BD4900002000380140EA
:105160007800002070000020000800402800002087
:10517000000C01402C000020D2B201E000F8012B0D
:10518000491EFBD270470022F6E710B504460846D8
:10519000114602462046FFF7EFFF204610BDF0B44F
:1051A00080EA0102D20F4300B3EB410F02D2034663
:1051B000084619464B0042D0C30DDDB2C1F3C754B7
:1051C0002C1B202C35DAC1F3160141F4000502B185
:1051D0006D42C4F1200605FA06F125412844B3EBDF
:1051E000D05F23D0C2B1012CA0EBC35009DCF0BCCE
:1051F0004FF0004202EAC35200F50000DBB200F0BB
:105200009DB8400000F1807000EBC350A0F18070A9
:1052100040EAD170490009E0490841EAC071A0EBB9
:10522000C35000F50000400800EBC350F0BC00F094
:105230007CB85142012303EB4101801AF6E7F0BC30
:10524000704781F00041AAE780F00040A7E7C10F56
:1052500080EAE0700844CA079623002100F06EB887
:1052600096230022114600F069B800F0004220F0B9
:105270000040C10DC0F3160040F400007F2901DAA0
:1052800000207047962903DCC1F19601C84001E077
:1052900096398840002AF4D04042704720F0004000
:1052A000C10DC0F3160040F400007F2901DA002090
:1052B0007047962903DCC1F19601C84070479639C2
:1052C000884070472DE9F05F0546002092469B46D6
:1052D00088460646814640241DE02846414647460A
:1052E000224600F07CF8B0EB0A0052465B4671EBB8
:1052F0000B0110D310461946224600F061F82D1A12
:1053000067EB01084F4622460120002100F058F8C3
:1053100017EB00094E41201EA4F10104DDDC4846D4
:1053200031462A464346BDE8F09F0029A8BF704792
:10533000401C490008BF20F00100704710B4B0FACB
:1053400080FC00FA0CF050EA010404BF10BC704766
:1053500049B1CCF1200421FA04F411FA0CF118BF80
:10536000012121430843A3EB0C01CB1D4FEA00614F
:105370004FEA102048BF0020BCBF10BC704700EBB4
:10538000C35010440029A4BF10BC7047401C490002
:1053900008BF20F0010010BC70470000064C074D0C
:1053A00006E0E06840F0010394E8070098471034F5
:1053B000AC42F6D3FAF79EFE645700088457000803
:1053C000202A04DB203A00FA02F1002070479140C5
:1053D000C2F1200320FA03F3194390407047202ABA
:1053E00004DB203A21FA02F00021704721FA02F38F
:1053F000D040C2F120029140084319467047000096
:105400000FB4054B10B503A9044A029800F018F830
:1054100010BC5DF814FB0000912800087400002007
:1054200002E008C8121F08C1002AFAD1704770476D
:10543000002001E001C1121F002AFBD170470000CB
:105440002DE9FF4F8BB004469A460F460026FFE039
:10545000252850D10025641C814AA84601212378C3
:10546000203B01FA03F0104202D00543641CF6E72A
:1054700020782E2817D114F8010F45F004052A28AA
:105480000ED06FF02F022078A0F1300109290AD840
:1054900008EB880102EB410100EB0108641CF2E714
:1054A00057F8048B641C20786C280DD004DC4C2841
:1054B00012D06A2811D104E074280DD07A280CD1BA
:1054C0000AE045F4001507E0617845F48015814253
:1054D00002D1641C05F58015641C207869283ED033
:1054E00005DC98B363280CD0642804D137E0732816
:1054F00010D075285CD052460D99904706F10106F0
:10550000A5E001CF8DF8000000208DF80100E946EC
:10551000012003E057F8049B4FF0FF3069074FF07C
:10552000000501D40AE06D1C45450DDA8542FADB21
:1055300019F805100029F6D106E06D1C8542FCDB48
:1055400019F805100029F8D12E4405E084E019F877
:10555000010B52460D9990476D1EF8D277E000205E
:105560000A90C5F302504FF00A0B02280AD001CF6F
:10557000C11700290DDA0023D0EB030063EB010112
:105580002D2209E007F1070727F00707F7E80201D6
:10559000EFE72A0504D52B228DF82420012203E011
:1055A000EA070FD02022F7E70DF12009089219E051
:1055B00000200A90C5F302504FF00A0B022803D0D6
:1055C00001CF00210022EFE7FF1D27F00707F7E8D2
:1055D0000201F7E75A460A9BFFF774FE02F1300218
:1055E00009F8012D50EA0102F4D1ADEB090000F1F8
:1055F000200B680701D44FF00108002041465A46AD
:10560000D84500DD881A8046002506E009A85246E4
:10561000405D0D999047761C6D1C08988542F5DB1E
:1056200004E0302052460D999047761CB8F10001F5
:10563000A8F10108F5DC05E019F8010B52460D99B7
:105640009047761CBBF10001ABF1010BF4DC641C4C
:10565000207800287FF4FCAE0FB03046BDE8F08F14
:105660000928010000000100020001000300010000
:10567000020001000400010002000100030001001B
:10568000020001000500010002000100030001000A
:1056900002000100040001000200010003000100FB
:1056A00002000100060001000200010003000100E9
:1056B00002000100040001000200010003000100DB
:1056C00002000100050001000200010003000100CA
:1056D00002000100040001000200010003000100BB
:1056E00002000100070001000200010003000100A8
:1056F000020001000400010002000100030001009B
:105700000200010005000100020001000300010089
:10571000020001000400010002000100030001007A
:105720000200010006000100020001000300010068
:10573000020001000400010002000100030001005A
:105740000200010005000100020001000300010049
:10575000020001000400010002000100030001003A
:1057600002000100845700080000002078000000BB
:1057700020540008FC57000878000020A011000009
:105780003054000800A24A0400000000000000009D
:1057900001020304060708090000000001020304D7
:1057A00001020304060708090204060800000000BD
:1057B00000000000000000000000000000000000E9
:1057C00000000000000000000000000000000000D9
:1057D00000000000000000000000000000000000C9
:1057E00000000000000000000000000000000000B9
:0C57F000000000000000000000000000AD
:04000005080000ED02
:00000001FF
